{
  "transactions": [
    {
      "hash": "0x81301af7a4e627f289189be8fdebf2a7e1d2b2a706e1d3c88ace6868823c46c4",
      "transactionType": "CALL",
      "contractName": null,
      "contractAddress": "0xf5059a5d33d5853360d16c683c16e67980206f36",
      "function": "approve(address,uint256)",
      "arguments": [
        "0x9d4454B023096f34B160D6B654540c56A1F81688",
        "115792089237316195423570985008687907853269984665640564039457584007913129639935"
      ],
      "transaction": {
        "from": "0xf39fd6e51aad88f6f4ce6ab8827279cfffb92266",
        "to": "0xf5059a5d33d5853360d16c683c16e67980206f36",
        "gas": "0xfee1",
        "value": "0x0",
        "input": "0x095ea7b30000000000000000000000009d4454b023096f34b160d6b654540c56a1f81688ffffffffffffffffffffffffffffffffffffffffffffffffffffffffffffffff",
        "nonce": "0x39",
        "chainId": "0x531"
      },
      "additionalContracts": [],
      "isFixedGasLimit": false
    },
    {
      "hash": "0x229997ed4c4ad2e1b343cb3e2c38a8b11ccdc7ad544c75e2a7946ec3d86e55d2",
      "transactionType": "CALL",
      "contractName": null,
      "contractAddress": "0x9d4454b023096f34b160d6b654540c56a1f81688",
      "function": "deposit(uint256,address)",
      "arguments": [
        "10000000000",
        "0xf39Fd6e51aad88F6F4ce6aB8827279cffFb92266"
      ],
      "transaction": {
        "from": "0xf39fd6e51aad88f6f4ce6ab8827279cfffb92266",
        "to": "0x9d4454b023096f34b160d6b654540c56a1f81688",
        "gas": "0x43f8d",
        "value": "0x0",
        "input": "0x6e553f6500000000000000000000000000000000000000000000000000000002540be400000000000000000000000000f39fd6e51aad88f6f4ce6ab8827279cfffb92266",
        "nonce": "0x3a",
        "chainId": "0x531"
      },
      "additionalContracts": [],
      "isFixedGasLimit": false
    },
    {
      "hash": "0x329e0025d8b485398c49dfbd45351eb3768828d7aa3015496b9294c7a2747a9c",
      "transactionType": "CALL",
      "contractName": null,
      "contractAddress": "0x9d4454b023096f34b160d6b654540c56a1f81688",
      "function": "harvest()",
      "arguments": [],
      "transaction": {
        "from": "0xf39fd6e51aad88f6f4ce6ab8827279cfffb92266",
        "to": "0x9d4454b023096f34b160d6b654540c56a1f81688",
        "gas": "0xfff1",
        "value": "0x0",
        "input": "0x4641257d",
        "nonce": "0x3b",
        "chainId": "0x531"
      },
      "additionalContracts": [],
      "isFixedGasLimit": false
    },
    {
      "hash": "0x88c413e8a0a58aa6bce600e47ebea743b857613ff5f31874cbd848849c6e821a",
      "transactionType": "CALL",
      "contractName": null,
      "contractAddress": "0x9d4454b023096f34b160d6b654540c56a1f81688",
      "function": "redeem(uint256,address,address)",
      "arguments": [
        "5000000000",
        "0xf39Fd6e51aad88F6F4ce6aB8827279cffFb92266",
        "0xf39Fd6e51aad88F6F4ce6aB8827279cffFb92266"
      ],
      "transaction": {
        "from": "0xf39fd6e51aad88f6f4ce6ab8827279cfffb92266",
        "to": "0x9d4454b023096f34b160d6b654540c56a1f81688",
        "gas": "0x334a0",
        "value": "0x0",
        "input": "0xba087652000000000000000000000000000000000000000000000000000000012a05f200000000000000000000000000f39fd6e51aad88f6f4ce6ab8827279cfffb92266000000000000000000000000f39fd6e51aad88f6f4ce6ab8827279cfffb92266",
        "nonce": "0x3c",
        "chainId": "0x531"
      },
      "additionalContracts": [],
      "isFixedGasLimit": false
    }
  ],
  "receipts": [
    {
      "status": "0x1",
      "cumulativeGasUsed": "0xb888",
      "logs": [
        {
          "address": "0xf5059a5d33d5853360d16c683c16e67980206f36",
          "topics": [
            "0x8c5be1e5ebec7d5bd14f71427d1e84f3dd0314c0f7b2291e5b200ac8c7c3b925",
            "0x000000000000000000000000f39fd6e51aad88f6f4ce6ab8827279cfffb92266",
            "0x0000000000000000000000009d4454b023096f34b160d6b654540c56a1f81688"
          ],
          "data": "0xffffffffffffffffffffffffffffffffffffffffffffffffffffffffffffffff",
          "blockHash": "0x62a10e3e2531d08965ab7fd5c6c0271d6d8ae44104516e0accf925c644c98984",
          "blockNumber": "0xb724c7c",
          "blockTimestamp": "0x698091fe",
          "transactionHash": "0x81301af7a4e627f289189be8fdebf2a7e1d2b2a706e1d3c88ace6868823c46c4",
          "transactionIndex": "0x0",
          "logIndex": "0x0",
          "removed": false
        }
      ],
      "logsBloom": "0x00000000000000000000000000000000000000000000000000000000000000000000000000000000000000000000000080800010000000000000000000200000000000000000000000000000000000000040000000000100000000000000000000000000000000000000000100000000000000000000000000000000000000000400000000000000000000000000000000000000000000000000000000000000020000000000000000000000000000000000000000000000000000000000000000000000000000200000000000000000000000002000000000000000000000000010000000000000000000000000000000000000000000000000000000000000",
      "type": "0x2",
      "transactionHash": "0x81301af7a4e627f289189be8fdebf2a7e1d2b2a706e1d3c88ace6868823c46c4",
      "transactionIndex": "0x0",
      "blockHash": "0x62a10e3e2531d08965ab7fd5c6c0271d6d8ae44104516e0accf925c644c98984",
      "blockNumber": "0xb724c7c",
      "gasUsed": "0xb888",
      "effectiveGasPrice": "0x23471b451",
      "blobGasPrice": "0x1",
      "from": "0xf39fd6e51aad88f6f4ce6ab8827279cfffb92266",
      "to": "0xf5059a5d33d5853360d16c683c16e67980206f36",
      "contractAddress": null
    },
    {
      "status": "0x1",
      "cumulativeGasUsed": "0x31e4f",
      "logs": [
        {
          "address": "0xf5059a5d33d5853360d16c683c16e67980206f36",
          "topics": [
            "0xddf252ad1be2c89b69c2b068fc378daa952ba7f163c4a11628f55a4df523b3ef",
            "0x000000000000000000000000f39fd6e51aad88f6f4ce6ab8827279cfffb92266",
            "0x0000000000000000000000009d4454b023096f34b160d6b654540c56a1f81688"
          ],
          "data": "0x00000000000000000000000000000000000000000000000000000002540be400",
          "blockHash": "0x3eccdb1becfed89f282c083cb06b054d17cd79db33f3541810dc65bc8be97073",
          "blockNumber": "0xb724c7d",
          "blockTimestamp": "0x698091fe",
          "transactionHash": "0x329e0025d8b485398c49dfbd45351eb3768828d7aa3015496b9294c7a2747a9c",
          "transactionIndex": "0x0",
          "logIndex": "0x0",
          "removed": false
        },
        {
          "address": "0x9d4454b023096f34b160d6b654540c56a1f81688",
          "topics": [
            "0xddf252ad1be2c89b69c2b068fc378daa952ba7f163c4a11628f55a4df523b3ef",
            "0x0000000000000000000000000000000000000000000000000000000000000000",
            "0x000000000000000000000000f39fd6e51aad88f6f4ce6ab8827279cfffb92266"
          ],
          "data": "0x00000000000000000000000000000000000000000000000000000002540be400",
          "blockHash": "0x3eccdb1becfed89f282c083cb06b054d17cd79db33f3541810dc65bc8be97073",
          "blockNumber": "0xb724c7d",
          "blockTimestamp": "0x698091fe",
          "transactionHash": "0x329e0025d8b485398c49dfbd45351eb3768828d7aa3015496b9294c7a2747a9c",
          "transactionIndex": "0x0",
          "logIndex": "0x1",
          "removed": false
        },
        {
          "address": "0x9d4454b023096f34b160d6b654540c56a1f81688",
          "topics": [
            "0xdcbc1c05240f31ff3ad067ef1ee35ce4997762752e3a095284754544f4c709d7",
            "0x000000000000000000000000f39fd6e51aad88f6f4ce6ab8827279cfffb92266",
            "0x000000000000000000000000f39fd6e51aad88f6f4ce6ab8827279cfffb92266"
          ],
          "data": "0x00000000000000000000000000000000000000000000000000000002540be40000000000000000000000000000000000000000000000000000000002540be400",
          "blockHash": "0x3eccdb1becfed89f282c083cb06b054d17cd79db33f3541810dc65bc8be97073",
          "blockNumber": "0xb724c7d",
          "blockTimestamp": "0x698091fe",
          "transactionHash": "0x329e0025d8b485398c49dfbd45351eb3768828d7aa3015496b9294c7a2747a9c",
          "transactionIndex": "0x0",
          "logIndex": "0x2",
          "removed": false
        },
        {
          "address": "0xf5059a5d33d5853360d16c683c16e67980206f36",
          "topics": [
            "0xddf252ad1be2c89b69c2b068fc378daa952ba7f163c4a11628f55a4df523b3ef",
            "0x0000000000000000000000009d4454b023096f34b160d6b654540c56a1f81688",
            "0x0000000000000000000000005eb3bc0a489c5a8288765d2336659ebca68fcd00"
          ],
          "data": "0x00000000000000000000000000000000000000000000000000000002540be400",
          "blockHash": "0x3eccdb1becfed89f282c083cb06b054d17cd79db33f3541810dc65bc8be97073",
          "blockNumber": "0xb724c7d",
          "blockTimestamp": "0x698091fe",
          "transactionHash": "0x329e0025d8b485398c49dfbd45351eb3768828d7aa3015496b9294c7a2747a9c",
          "transactionIndex": "0x0",
          "logIndex": "0x3",
          "removed": false
        },
        {
          "address": "0xf5059a5d33d5853360d16c683c16e67980206f36",
          "topics": [
            "0xddf252ad1be2c89b69c2b068fc378daa952ba7f163c4a11628f55a4df523b3ef",
            "0x0000000000000000000000005eb3bc0a489c5a8288765d2336659ebca68fcd00",
            "0x00000000000000000000000095401dc811bb5740090279ba06cfa8fcf6113778"
          ],
          "data": "0x00000000000000000000000000000000000000000000000000000002540be400",
          "blockHash": "0x3eccdb1becfed89f282c083cb06b054d17cd79db33f3541810dc65bc8be97073",
          "blockNumber": "0xb724c7d",
          "blockTimestamp": "0x698091fe",
          "transactionHash": "0x329e0025d8b485398c49dfbd45351eb3768828d7aa3015496b9294c7a2747a9c",
          "transactionIndex": "0x0",
          "logIndex": "0x4",
          "removed": false
        },
        {
          "address": "0x95401dc811bb5740090279ba06cfa8fcf6113778",
          "topics": [
            "0xddf252ad1be2c89b69c2b068fc378daa952ba7f163c4a11628f55a4df523b3ef",
            "0x0000000000000000000000000000000000000000000000000000000000000000",
            "0x0000000000000000000000005eb3bc0a489c5a8288765d2336659ebca68fcd00"
          ],
          "data": "0x00000000000000000000000000000000000000000000000000000002540be400",
          "blockHash": "0x3eccdb1becfed89f282c083cb06b054d17cd79db33f3541810dc65bc8be97073",
          "blockNumber": "0xb724c7d",
          "blockTimestamp": "0x698091fe",
          "transactionHash": "0x329e0025d8b485398c49dfbd45351eb3768828d7aa3015496b9294c7a2747a9c",
          "transactionIndex": "0x0",
          "logIndex": "0x5",
          "removed": false
        },
        {
          "address": "0x5eb3bc0a489c5a8288765d2336659ebca68fcd00",
          "topics": [
            "0x2a89b2e3d580398d6dc2db5e0f336b52602bbaa51afa9bb5cdf59239cf0d2bea"
          ],
          "data": "0x00000000000000000000000000000000000000000000000000000002540be400",
          "blockHash": "0x3eccdb1becfed89f282c083cb06b054d17cd79db33f3541810dc65bc8be97073",
          "blockNumber": "0xb724c7d",
          "blockTimestamp": "0x698091fe",
          "transactionHash": "0x329e0025d8b485398c49dfbd45351eb3768828d7aa3015496b9294c7a2747a9c",
          "transactionIndex": "0x0",
          "logIndex": "0x6",
          "removed": false
        }
      ],
      "logsBloom": "0x00000000000000000000000000000008000000000000000000000000020000000000000000000000000080000080000080800010000000000000000000000000004000400000000000000008000000000040000000000100004000001000000000000000020000000000000100000800000000080004000000000010000000000500000000000000000000000000000000000400020000000000000000000000000000000000000000200000000000000000000000000080000000000000000000000003000000200000000040000000000000002008000000000000000020000000000000400000080000000000000000000400000000000000000000000000",
      "type": "0x2",
      "transactionHash": "0x329e0025d8b485398c49dfbd45351eb3768828d7aa3015496b9294c7a2747a9c",
      "transactionIndex": "0x0",
      "blockHash": "0x3eccdb1becfed89f282c083cb06b054d17cd79db33f3541810dc65bc8be97073",
      "blockNumber": "0xb724c7d",
      "gasUsed": "0x31e4f",
      "effectiveGasPrice": "0x1f5ef789b",
      "blobGasPrice": "0x1",
      "from": "0xf39fd6e51aad88f6f4ce6ab8827279cfffb92266",
      "to": "0x9d4454b023096f34b160d6b654540c56a1f81688",
      "contractAddress": null
    },
    {
      "status": "0x1",
      "cumulativeGasUsed": "0x3cd50",
      "logs": [
        {
          "address": "0x5eb3bc0a489c5a8288765d2336659ebca68fcd00",
          "topics": [
            "0x8e55ccfc9778ff8eba1646d765cf1982537ce0f9257054a17b48aad745250183"
          ],
          "data": "0x0000000000000000000000000000000000000000000000000000000000000000",
          "blockHash": "0x3eccdb1becfed89f282c083cb06b054d17cd79db33f3541810dc65bc8be97073",
          "blockNumber": "0xb724c7d",
          "blockTimestamp": "0x698091fe",
          "transactionHash": "0x229997ed4c4ad2e1b343cb3e2c38a8b11ccdc7ad544c75e2a7946ec3d86e55d2",
          "transactionIndex": "0x1",
          "logIndex": "0x7",
          "removed": false
        }
      ],
      "logsBloom": "0x00000000000000000000000000000008000000000000000000000000000000000000000000000000000000000000000000000000000000000000000000000000004000000000000000000000001000000000000000000000004000000000000000000000000000000000000000000000000000000000000000000000000000000000000000000000000000000000000000000000000000000000000000000000000000000000000000000000000000000000000000000000000000000000000000000000000000000000000000000000000000000000000008000000000000000000000000000000000000000000000000000000000800000000000000000000",
      "type": "0x2",
      "transactionHash": "0x229997ed4c4ad2e1b343cb3e2c38a8b11ccdc7ad544c75e2a7946ec3d86e55d2",
      "transactionIndex": "0x1",
      "blockHash": "0x3eccdb1becfed89f282c083cb06b054d17cd79db33f3541810dc65bc8be97073",
      "blockNumber": "0xb724c7d",
      "gasUsed": "0xaf01",
      "effectiveGasPrice": "0x1f5ef789b",
      "blobGasPrice": "0x1",
      "from": "0xf39fd6e51aad88f6f4ce6ab8827279cfffb92266",
      "to": "0x9d4454b023096f34b160d6b654540c56a1f81688",
      "contractAddress": null
    },
    {
      "status": "0x1",
      "cumulativeGasUsed": "0x61f6f",
      "logs": [
        {
          "address": "0x95401dc811bb5740090279ba06cfa8fcf6113778",
          "topics": [
            "0xddf252ad1be2c89b69c2b068fc378daa952ba7f163c4a11628f55a4df523b3ef",
            "0x0000000000000000000000005eb3bc0a489c5a8288765d2336659ebca68fcd00",
            "0x0000000000000000000000000000000000000000000000000000000000000000"
          ],
          "data": "0x000000000000000000000000000000000000000000000000000000012a05f200",
          "blockHash": "0x3eccdb1becfed89f282c083cb06b054d17cd79db33f3541810dc65bc8be97073",
          "blockNumber": "0xb724c7d",
          "blockTimestamp": "0x698091fe",
          "transactionHash": "0x88c413e8a0a58aa6bce600e47ebea743b857613ff5f31874cbd848849c6e821a",
          "transactionIndex": "0x2",
          "logIndex": "0x8",
          "removed": false
        },
        {
          "address": "0xf5059a5d33d5853360d16c683c16e67980206f36",
          "topics": [
            "0xddf252ad1be2c89b69c2b068fc378daa952ba7f163c4a11628f55a4df523b3ef",
            "0x00000000000000000000000095401dc811bb5740090279ba06cfa8fcf6113778",
            "0x0000000000000000000000005eb3bc0a489c5a8288765d2336659ebca68fcd00"
          ],
          "data": "0x000000000000000000000000000000000000000000000000000000012a05f200",
          "blockHash": "0x3eccdb1becfed89f282c083cb06b054d17cd79db33f3541810dc65bc8be97073",
          "blockNumber": "0xb724c7d",
          "blockTimestamp": "0x698091fe",
          "transactionHash": "0x88c413e8a0a58aa6bce600e47ebea743b857613ff5f31874cbd848849c6e821a",
          "transactionIndex": "0x2",
          "logIndex": "0x9",
          "removed": false
        },
        {
          "address": "0xf5059a5d33d5853360d16c683c16e67980206f36",
          "topics": [
            "0xddf252ad1be2c89b69c2b068fc378daa952ba7f163c4a11628f55a4df523b3ef",
            "0x0000000000000000000000005eb3bc0a489c5a8288765d2336659ebca68fcd00",
            "0x0000000000000000000000009d4454b023096f34b160d6b654540c56a1f81688"
          ],
          "data": "0x000000000000000000000000000000000000000000000000000000012a05f200",
          "blockHash": "0x3eccdb1becfed89f282c083cb06b054d17cd79db33f3541810dc65bc8be97073",
          "blockNumber": "0xb724c7d",
          "blockTimestamp": "0x698091fe",
          "transactionHash": "0x88c413e8a0a58aa6bce600e47ebea743b857613ff5f31874cbd848849c6e821a",
          "transactionIndex": "0x2",
          "logIndex": "0xa",
          "removed": false
        },
        {
          "address": "0x5eb3bc0a489c5a8288765d2336659ebca68fcd00",
          "topics": [
            "0x430648de173157e069201c943adb2d4e340e7cf5b27b1b09c9cb852f03d63b56"
          ],
          "data": "0x000000000000000000000000000000000000000000000000000000012a05f200",
          "blockHash": "0x3eccdb1becfed89f282c083cb06b054d17cd79db33f3541810dc65bc8be97073",
          "blockNumber": "0xb724c7d",
          "blockTimestamp": "0x698091fe",
          "transactionHash": "0x88c413e8a0a58aa6bce600e47ebea743b857613ff5f31874cbd848849c6e821a",
          "transactionIndex": "0x2",
          "logIndex": "0xb",
          "removed": false
        },
        {
          "address": "0x9d4454b023096f34b160d6b654540c56a1f81688",
          "topics": [
            "0xddf252ad1be2c89b69c2b068fc378daa952ba7f163c4a11628f55a4df523b3ef",
            "0x000000000000000000000000f39fd6e51aad88f6f4ce6ab8827279cfffb92266",
            "0x0000000000000000000000000000000000000000000000000000000000000000"
          ],
          "data": "0x000000000000000000000000000000000000000000000000000000012a05f200",
          "blockHash": "0x3eccdb1becfed89f282c083cb06b054d17cd79db33f3541810dc65bc8be97073",
          "blockNumber": "0xb724c7d",
          "blockTimestamp": "0x698091fe",
          "transactionHash": "0x88c413e8a0a58aa6bce600e47ebea743b857613ff5f31874cbd848849c6e821a",
          "transactionIndex": "0x2",
          "logIndex": "0xc",
          "removed": false
        },
        {
          "address": "0xf5059a5d33d5853360d16c683c16e67980206f36",
          "topics": [
            "0xddf252ad1be2c89b69c2b068fc378daa952ba7f163c4a11628f55a4df523b3ef",
            "0x0000000000000000000000009d4454b023096f34b160d6b654540c56a1f81688",
            "0x000000000000000000000000f39fd6e51aad88f6f4ce6ab8827279cfffb92266"
          ],
          "data": "0x000000000000000000000000000000000000000000000000000000012a05f200",
          "blockHash": "0x3eccdb1becfed89f282c083cb06b054d17cd79db33f3541810dc65bc8be97073",
          "blockNumber": "0xb724c7d",
          "blockTimestamp": "0x698091fe",
          "transactionHash": "0x88c413e8a0a58aa6bce600e47ebea743b857613ff5f31874cbd848849c6e821a",
          "transactionIndex": "0x2",
          "logIndex": "0xd",
          "removed": false
        },
        {
          "address": "0x9d4454b023096f34b160d6b654540c56a1f81688",
          "topics": [
            "0xfbde797d201c681b91056529119e0b02407c7bb96a4a2c75c01fc9667232c8db",
            "0x000000000000000000000000f39fd6e51aad88f6f4ce6ab8827279cfffb92266",
            "0x000000000000000000000000f39fd6e51aad88f6f4ce6ab8827279cfffb92266",
            "0x000000000000000000000000f39fd6e51aad88f6f4ce6ab8827279cfffb92266"
          ],
          "data": "0x000000000000000000000000000000000000000000000000000000012a05f200000000000000000000000000000000000000000000000000000000012a05f200",
          "blockHash": "0x3eccdb1becfed89f282c083cb06b054d17cd79db33f3541810dc65bc8be97073",
          "blockNumber": "0xb724c7d",
          "blockTimestamp": "0x698091fe",
          "transactionHash": "0x88c413e8a0a58aa6bce600e47ebea743b857613ff5f31874cbd848849c6e821a",
          "transactionIndex": "0x2",
          "logIndex": "0xe",
          "removed": false
        }
      ],
      "logsBloom": "0x00000800000000400000000000000008000000000000000000000000020000000000000000000000000000000080000080800010000000000000000000000000004040000000000000000008000000000040000000000100004000001000000000000000020000000000000100000800000000080000040000000010000000000500000000000000000000000000000000000000000000000000000000000000000000000000000000200000000000020000000000000080000000000000000000000003000000200000000040000000000000002000000000000000000020000000000000400000080000000000000000000400000000000000000000000000",
      "type": "0x2",
      "transactionHash": "0x88c413e8a0a58aa6bce600e47ebea743b857613ff5f31874cbd848849c6e821a",
      "transactionIndex": "0x2",
      "blockHash": "0x3eccdb1becfed89f282c083cb06b054d17cd79db33f3541810dc65bc8be97073",
      "blockNumber": "0xb724c7d",
      "gasUsed": "0x2521f",
      "effectiveGasPrice": "0x1f5ef789b",
      "blobGasPrice": "0x1",
      "from": "0xf39fd6e51aad88f6f4ce6ab8827279cfffb92266",
      "to": "0x9d4454b023096f34b160d6b654540c56a1f81688",
      "contractAddress": null
    }
  ],
  "libraries": [],
  "pending": [],
  "returns": {},
  "timestamp": 1770033663283,
  "chain": 1329,
  "commit": "9bfd2a1"
}